:020000040800F2
:10000000C80700201D050008210500082305000879
:100010002505000827050008290500080000000044
:100020000000000000000000000000002B05000898
:100030002D050008000000002F050008310500080C
:1000400033050008330500083305000833050008B0
:1000500033050008330500086913000887130008FA
:100060003305000833050008B11300083305000804
:100070003305000833050008330500083305000880
:10008000310C0008510E0008330500083305000844
:10009000330500083305000833050008F513000890
:1000A0003305000801160008330500083305000871
:1000B0000509000833050008D717000833050008B4
:1000C0003305000833050008330500083305000830
:1000D0003305000833050008650D000833050008E6
:1000E00033050008330500083305000800F002F866
:1000F00000F03AF80AA090E8000C82448344AAF188
:100100000107DA4501D100F02FF8AFF2090EBAE885
:100110000F0013F0010F18BFFB1A43F0010318473B
:100120006829000088290000103A24BF78C878C1E7
:10013000FAD8520724BF30C830C144BF04680C60ED
:10014000704700000023002400250026103A28BF35
:1001500078C1FBD8520728BF30C148BF0B60704739
:100160001FB51FBD10B510BD01F093FD1146FFF77F
:10017000F7FF00F00FF801F0B1FD03B4FFF7F2FF55
:1001800003BC00F08DFC000030BF72B662B680F395
:100190000888704786B001200590002004900390E5
:1001A000092000F0DCFA482000F032FB00F0EEFFFE
:1001B00001F006F801F01EF801F045F84FF4165171
:1001C000482000F07CFC4FF41651242000F04FFE34
:1001D000C44AC5490C2000F0E8FCC44AC2490C20BE
:1001E00000F0E0FD01F0ACFA0F214AF6C77001F013
:1001F00035F90120BE49086040F2DC5000F040FBB8
:1002000040F2DC5000F03CFB0120BA49C1F8B001DB
:1002100000BFB94800680028FBD141F2883001F0E6
:1002200072F901F0ABFB632140F2CF2000F048FBF4
:100230000020B249086053E1B148007801280AD192
:100240000020AF49087001F033FC4022002108462D
:1002500000F0C6FB44E1AB48007800285DD01028D0
:1002600002D020287ED154E00020A7490870A7487A
:100270000078002843D103A904A800F029FF88B31F
:10028000DDE9031001F053FCA149088801F0A6FF45
:10029000804600229F4B01F005FE04460D469E4914
:1002A00091F9001001EB8101480001F080FF064642
:1002B00022462B4601F04EFD824601F019FD0290C8
:1002C0008E48006801F08AFF06460022914B01F03B
:1002D000E9FD044601F00CFD00220190029900F0B6
:1002E0007FFB15E0FFE71E2000F0CAFA0322002181
:1002F000084600F075FB10208449087008E0834828
:100300000078202804D100F030FF10207F490870C9
:10031000E5E001207C490870E1E000207A4908709E
:100320007A480078102804D1002074490860774981
:10033000087003A904A800F0CBFE00287DD0DDE9F9
:10034000031001F0F4FB00F0EDFE0A2866DC0598CE
:10035000012863D1002005906A48007820282FD119
:100360006B4900E0BAE0088801F038FF0646002239
:10037000684B01F097FD04460D46674991F900105E
:1003800001EB8101480001F012FF824622462B4614
:1003900001F0E0FC804601F0ABFC02905748006899
:1003A00001F01CFF064600225A4B01F07BFD04467B
:1003B00001F09EFC00220190029900F011FB8CE0FC
:1003C0005349088801F00AFF82460022514B01F090
:1003D00069FD06460F46504991F9001001EB810175
:1003E000480001F0E4FE804632463B4601F0B2FC94
:1003F000044601F07DFC02904048006801F0EEFEEA
:1004000006460022434B01F04DFD044601F070FC0E
:1004100001220190029900F0E3FA5EE001200590CC
:100420003B49088801F0DAFE82460022394B01F090
:1004300039FD06460F46384900E021E091F90010E9
:1004400001EB8101480001F0B2FE804632463B4696
:1004500001F080FC044601F04BFC02902748006844
:1004600001F0BCFE064600222A4B01F01BFD0446AB
:1004700001F03EFC00220190029900F0B1FA2CE05C
:100480002349088801F0AAFE06460022214B01F00C
:1004900009FD04460D46204991F9001001EB810148
:1004A000480001F084FE804622462B4601F052FCB3
:1004B000824601F01DFC02901048006801F08EFE9B
:1004C00006460022134B01F0EDFC044601F010FC3F
:1004D00001220190029900F083FA00E000BF00BF02
:1004E000AAE600003E000020044400402E00002048
:1004F000BC012142008021420481214204000020ED
:1005000013000020110000200B000020100000202C
:100510002408004000408F40200000200848004789
:10052000FEE7FEE7FEE7FEE7FEE7FEE7FEE7FEE7A3
:10053000FEE7FEE703480449044A054B7047000004
:10054000ED000008C8010020C8070020C8030020F3
:10055000C8030020A34A0A400243A34B1A60704715
:100560000146072323EA010212029F4B1B1D186854
:100570004FF6FF0318409D4B184310439A4B1B1D29
:10058000186070472DE9F0410746884614461D461D
:100590002846FFF7E5FFC5F1040007FA00F60F2033
:1005A000284100EA0800064306F00F06E21704EBB4
:1005B000D2625211920002F1E022D2F800212146CB
:1005C000E31704EBD3635B11A4EB431C012303FA91
:1005D0000CF31A432046E31704EBD3635B119B0033
:1005E00003F1E023C3F800218148005D40EA0610D2
:1005F0007F490855BDE8F08170B504460B46CE171B
:1006000001EB9676C6F38700CE1701EB9676B6100F
:10061000A1EB8606B606350E764B9B6943F00103C7
:10062000744EB3614FEAB63353F820300F26AE4014
:10063000B343714E46F82030334653F8203004FA65
:1006400005F61E436C4B43F820606C4B1B6801267B
:100650008E403343694E336002F0010343B1674B70
:100660000C331B6801268E403343644E0C363360D6
:1006700002F0020343B1614B08331E6801238B4033
:100680001E435E4B08331E6070BD00B50020594903
:100690000861C8601420486100208861C86108466C
:1006A000006840F00100086008464068544908406E
:1006B0005049486008460068524908404D49086062
:1006C0000846006820F4802008600846406820F44E
:1006D000FE0048600020886000214FF00060FFF7B6
:1006E00039FF00BD10B540480830006840F00400F4
:1006F0003D49083108603F48C06940F080503D499D
:10070000C8614148406840F480703F4948600846ED
:10071000006840F0040008600846006840F00200ED
:100720000860FFF731FD10BD3048001D2E49091D3E
:1007300008607047014649062E4A926942F001025C
:100740002C4B9A612C4A083A526822F070622A4B6C
:10075000083B5A601A4652680A435A60704730B5DF
:1007600004460025FFF791FF2248006840F48030DE
:100770002049086000BF1F480068400C0028FAD0DC
:100780004FF480601B494860A01EC4B20846406810
:1007900040EA844048600846406840F48030486041
:1007A0001A48006840F03200184908601148006893
:1007B00040F080700F49086000BF0E480068400E8E
:1007C0000028FAD00B48406840F002000949486010
:1007D00005E008484068C0F3870505F00305022DD1
:1007E000F7D130BD80FFFF1F08ED00E00000FA05E3
:1007F00000E400E000100240080001400004014055
:100800000000FFF8FFFFF6FE0070004000200240ED
:100810004FF0E021096921F004014FF0E02211615D
:10082000C21700EB5272C2F3C702234B1A7019466B
:10083000097801EB4102C2EBC1114FF6FF7202EAE7
:10084000C1011E4A1180704701461B4A12784A4373
:100850004FF0E0235A6100229A6101221A6100BF21
:100860004FF0E022106900F001021AB100F480326A
:10087000002AF5D000224FF0E0231A619A617047F8
:1008800001460E4A12884A434FF0E0235A61002283
:100890009A6101221A6100BF4FF0E022106900F056
:1008A00001021AB100F48032002AF5D000224FF084
:1008B000E0231A619A6170470000002002000020C6
:1008C00070B505460C466A48C06940F001006849A9
:1008D000C861880485850485808940F00100890409
:1008E00088810846008840F080000880084600881B
:1008F00040F00100088002231C2200210846FFF777
:1009000041FE70BD4FF08040008A00F001000028D9
:100910005DD05848007820B957480068401C5649B7
:10092000086056480078401C544908700846007812
:10093000C82807DD0020087051480068C0435149AD
:10094000C1F89C014E4898380068F0B94C48103006
:100950000068012819D14C480078401C4A490870A9
:1009600008460078012810DD4848008820F400403F
:100970004649088045484438008820F00100434932
:10098000443908800020404908703D489C38006880
:10099000E8B93B4810300068C8B93D480078401CB1
:1009A0003B49087008460078012810DD3748008868
:1009B00020F400403549088034484438008820F04D
:1009C00001003249443908800020314908704FF055
:1009D0008040008A20F001004FF08041088270477B
:1009E00030B50023EF242B4DAC70FE24EC702C4668
:1009F0006060A1602273A478ED782C44254D2D7998
:100A00002C44244D6D792C44224DAD792C44214D3C
:100A1000ED792C441F4D2D7A2C441E4D6D7A2C44BB
:100A20001C4DAD7A2C441B4DED7A2C44194D2D7B79
:100A30002C44A3B2174D6B7300BF174C2478002CC5
:100A4000FBD10124144D2C70144C246824F00104B3
:100A5000124D803DC5F880400C24C5F884402C46DA
:100A6000D4F8804044F001040C4D2C6030BD0000EF
:100A7000001002400B0000200400002008000020AD
:100A80009C0121420000214209000020442C014029
:100A90000A0000202C0000201700002080000240E7
:100AA000014600BF704700BFFE4A128802F04002B4
:100AB000002AF9D0C2B2FB4B1B1D1A8070472DE9EA
:100AC000F05F05460E46300101F07EFE8146F64994
:100AD00005FB01F001F078FE8246494601F05EFD1B
:100AE0000746384601F038FE84B2204601F06CFE1D
:100AF0008346394601F048FF82464FF0834101F0BA
:100B000077FE814601F028FE80464FF6FF7000EA2E
:100B1000041404EB080084B2E448806940F0040047
:100B2000E24988610846806940F480408861E04875
:100B3000006820F47F60DE4908600846006840F4E1
:100B40000B600860D948C06840F48040D749C8604D
:100B50000846C06820F48040C860D248083004804D
:100B6000001D008842F20C010843CE490C31088078
:100B7000CC481430008840F04000CA491431088045
:100B8000C8480C30008840F48070C6490C31088099
:100B90000846008840F02000088002232522032117
:100BA0000846FFF7EFFCBDE8F09F70B504460D4620
:100BB0001646BE48406940F00100BC494861052026
:100BC000FFF75EFEBB484567866704670020B949AA
:100BD000C8660846C06EC8660846C06E40F0200071
:100BE000C8660846C06EC8660846C06E40F0800001
:100BF000C8660846C06EC8660846C06EC866084625
:100C0000C06E40F44050C8660846C06EC8660846CC
:100C1000C06E40F00200C8660846C06E40F0010099
:100C2000C8660223102219460320FFF7ABFC70BDF3
:100C300010B5A048006800F40010002870D09D484E
:100C4000406840F480109B4948609B488078FE28AB
:100C50007BD19948C078EF2877D19748807896491A
:100C6000C978084494490979084493494979084462
:100C70009149897908449049C97908448E49097A8B
:100C800008448D49497A08448B49897A08448A493D
:100C9000C97A08448849097B08448849088008467D
:100CA00000788549497B884242D18348007B2028CF
:100CB00011D003DCB8B1102838D104E0302818D0A6
:100CC000402833D12EE07E4800787E4908701020FD
:100CD0007B4908702BE07A4800787A490870202018
:100CE0007749087023E0744A9168506800F0C6F9AB
:100CF0001DE07448007810280AD173480078012854
:100D000006D100206F49087010206D49087006E078
:100D10006B4800786B49087000206949087006E04C
:100D20001FE012E001206949087000E000BF18E0F0
:100D30006048C06E20F001005E49C86664480078D3
:100D400040F08000624908700BE05A48C06E20F005
:100D500001005849C8665E48007840F080005C4950
:100D6000087010BD5B48008800F02000C8B15948E9
:100D7000001D0088584908705548007800F0800030
:100D800078B108460078FE280BD15148007800F071
:100D90007F004F4908704748C06E40F00100454948
:100DA000C866704770B504460D4616463F48406910
:100DB00040F001003D4948610520FFF761FD3D48D5
:100DC000883005603B48C0F88C603A488430046045
:100DD00000203849C1F880000846D0F8800040F073
:100DE0001000C1F88000334880300068C1F88000EE
:100DF000304880300068C1F880000846D0F8800094
:100E000040F08000C1F880002A4880300068C1F8B6
:100E10008000284880300068C1F880000846D0F87B
:100E2000800040F40050C1F8800022488030006803
:100E3000C1F880000846D0F8800040F00200C1F8F8
:100E400080000223112201210320FFF79BFB70BDCC
:100E50001848006800F0007040B11648406840F043
:100E600080701449486000201C49087070472DE9C3
:100E7000F05F05460E46300101F0A6FC81460A49A6
:100E800005FB01F001F0A0FC8246494601F086FB1B
:100E90000746384601F060FC84B2204601F094FC1D
:100EA00083461DE00038014040420F000010024020
:100EB00004080140000002403C0000201400002013
:100EC00011000020100000200B0000201300002063
:100ED00012000020004400401600002017000020EF
:100EE000394601F051FD82464FF0834101F080FC0C
:100EF000814601F031FC80464FF6FF7000EA041491
:100F000004EB080084B25748806940F0040055495A
:100F100088610846C06940F40030C86152480068E2
:100F200020F47F40504908600846006840F40B40B8
:100F300008604C48006940F400304A49086108469E
:100F4000006920F40030086148480480001D0088D2
:100F500042F20C0108434549091D088043480C3002
:100F6000008840F0400041490C3108800846008864
:100F700040F0800008803D48001D008840F48070EB
:100F80003A49091D08800846008840F02000088082
:100F90000223262203210846FFF7F4FABDE8F09F5A
:100FA0002DE9F05F05460E46300101F00DFC81464B
:100FB0002F4905FB01F001F007FC8246494601F08C
:100FC000EDFA0746384601F0C7FB84B2204601F02F
:100FD000FBFB8346394601F0D7FC82464FF0834144
:100FE00001F006FC814601F0B7FB80464FF6FF702A
:100FF00000EA041404EB080084B21A48806940F047
:101000000800184988610846C06940F48020C8611A
:101010001848006820F47F401649086008460068B8
:1010200040F40B4008600F48006940F480200D49EF
:1010300008610846006920F4802008610E48048099
:10104000001D008842F20C0108430B49091D08806D
:1010500009480C30008840F0400007490C310880F6
:10106000BDE8F09F00100240000801400844004025
:1010700040420F00040C01400848004002463F482F
:1010800000783F4B1B78984204D13E48007808B95D
:10109000002070473C48394B1B7840F83320374BD1
:1010A0001B7800EBC300416036480078012802D16C
:1010B0000020344B187031480078401C2F4B1870BA
:1010C00018460078232801D1002018700120E0E79D
:1010D00002462C480078012801D1002070472A4898
:1010E000274B1B7850F8330010602748244B1B789F
:1010F00000EBC3004068086021480078401C204B8A
:10110000187018460078232801D1002018701B4859
:1011100000781B4B1B78984202D10120194B1870A4
:101120000120DBE71548007815490978884206DD7B
:101130001248007812490978401AC0B270470F4827
:1011400000780F490978884207DA0C480078233084
:101150000B490978401AC0B2F0E70A480078012824
:1011600001D10020EAE72320E8E7002003490870C6
:1011700003490870012003490870704718000020D7
:10118000190000201A0000204C000020A9488069A6
:1011900040F00400A7498861A748006820F07F401C
:1011A000A54908600846006840F04C500860A24815
:1011B0000C30006840F0C0009F490C310860704757
:1011C0009C48806940F004009A4988619A48001D53
:1011D000006820F470209849091D086008460068DE
:1011E00040F44030086094480C30006892490C315B
:1011F000086070478F48806940F004008D4988611D
:101200008D48006800F0FF208B49086008460068A0
:1012100040F08810086088480C30006840F00100F9
:1012200085490C3108600846006840F002000860FB
:101230000846006840F0100008600846006840F06A
:1012400020000860704710B50120FFF773FA794855
:10125000806940F00400774988610846806940F061
:10126000080088617448001D006820F0F020724971
:10127000091D08600846006840F0302008606E488C
:101280000C30006820F400606B490C31086008469F
:10129000006820F400400860684800686849084019
:1012A0006649086008460068664908436349086063
:1012B00062480C30006820F0030060490C3108607F
:1012C0000846006820F0200008605C48001D0068A7
:1012D000C0B25A49091D0860084600685A490843C7
:1012E0005649091D086055480C30006820F44060DC
:1012F00052490C3108600846006820F470400860CC
:1013000010BD10B5012200210846FFF775F9012232
:1013100011460020FFF770F9012204210020FFF799
:101320006BF9012205210020FFF766F90222052151
:101330000120FFF761F90223062200210846FFF78A
:1013400021F90223072200210846FFF71BF9022397
:101350000A2200210120FFF715F90223172201219B
:101360000846FFF70FF910BD002000BF01E0411C47
:1013700088B24FF6FF718842F9DB344909680121D0
:10138000334A11607047002000BF01E0411C88B261
:101390004FF6FF718842F9DB2C49091D096819B91C
:1013A00000212A4AAC3211600221294A116070479B
:1013B000002000BF01E0411C88B24FF6FF71884257
:1013C000F9DB22491031096881B92049983109684F
:1013D000C943204AC2F898111F49098841F40041C5
:1013E0001D4A118001211C4A443A11801021184ADB
:1013F00011607047002000BF01E0411C88B24FF629
:10140000FF718842F9DB11491431096869B9124941
:10141000098821F40041104A11800F494439098894
:1014200021F001010C4A443A11802021084A116040
:10143000704700000010024000080140000C01400D
:1014400000FF0FFF88008000008833330001214235
:101450001404014000002142442C014070B50546AF
:101460000C46AC48806940F40060AA49886108468F
:10147000806940F004008861A748006820F00F00F0
:10148000A54908600846006840F00B000860A348C2
:101490000580001F0480A1481438008840F06800CF
:1014A0009E49143908809D480C38008840F001009E
:1014B0009A490C39088099481830008840F4004057
:1014C000964918310880802094492C390880934827
:1014D0002038008840F0010090492039088002231C
:1014E000192219460320FFF74DF88C482C38008844
:1014F00040F0010089492C39088045F2E4708749A1
:101500000831088070BD8649884200D9084642F2F9
:101510001071884211D90021804A121F118081491F
:10152000B1FBF0F1491E121D1180118801EBD1723F
:1015300052107A4B08331A8061E0B0F57A7F11D9E6
:101540000121764A121F11807749B1FBF0F1491E43
:10155000121D1180118801EBD17252106F4B0833AC
:101560001A804CE0642811D90F216C4A121F118097
:101570006E49B1FBF0F1491E121D1180118801EB7B
:10158000D1725210654B08331A8038E00A2811D9FD
:101590009621624A121F11806549B1FBF0F1491E84
:1015A000121D1180118801EBD17252105B4B083370
:1015B0001A8024E098B140F2DC51584A121F118081
:1015C0004AF6C871B1FBF0F1491E121D1180118855
:1015D00001EBD1725210514B08331A800FE04F4982
:1015E0001831098821F400414C4A183211804B49C6
:1015F0002C39098821F00101484A2C3A11807047A2
:1016000046481C38008800F00100C0B14948006815
:1016100080B942481830008820F400403F49183112
:1016200008803E482C38008820F001003B492C39C6
:10163000088004E03F480068401E3E490860374883
:101640001C38008820F0010034491C39088070479C
:10165000304AD26942F002022E4BDA611A46926990
:1016600042F004029A611A46926942F008029A61B5
:10167000294A121F126822F07F42274B1B1F1A6053
:101680001A46126842F03B421A602B4A126822F056
:10169000FF02294B1A601A46126842F0BB021A6018
:1016A000264A1080121F1180244A143A128842F0F0
:1016B0006802224B143B1A801A46128842F4D04228
:1016C0001A801A1D128842F068021B1D1A801A46E1
:1016D000128842F4D0421A801A1D128841F2111366
:1016E0001A43164B0C3B1A808022144B2C3B1A8059
:1016F0001A46128842F001021A8003220F4B083367
:101700001A800A221B1D1A801B1D1A8063221B1DB2
:101710001A80704700100240040801402C2C014040
:10172000A086010000A24A040051250220AA44001C
:10173000D0DD06001C000020000C01402C040040FD
:1017400010B58448C06940F004008249C861084669
:10175000806940F0080088617F48006820F07F4081
:101760007D4908600846006840F08840086042F201
:101770000F707A4908800020784908390880774836
:101780002438008840F003007449243908807348E5
:101790001438008840F00100704914390880084668
:1017A000008840F4807008806C482038008840F041
:1017B00001006A492039088002231E2219460020B0
:1017C000FEF7E0FE65482C38008840F001006349D0
:1017D0002C39088010BD61481C38008800F00100D9
:1017E00098B15E480838008841F28831884206DBAB
:1017F0005B480078401E40B25949087005E05848DF
:101800000078401C40B25649087054481C38008883
:1018100020F0010051491C39088070472DE9F0473C
:1018200004460D464D48083800884E4909888842CC
:1018300036D14D48007864282CD14C480078401CA3
:101840004A4908700846007832284FDD464800783B
:1018500047490978401A454909780844401E4549D6
:10186000087040480088A0F5FE40F83800B24249B0
:10187000088000203C4908703D4908703B490870C9
:1018800047F6F87035490839088008460088354918
:1018900008802BE036480078401C3549087025E068
:1018A00031480078642821D12F48007830490978E0
:1018B000401A2E49097808442E49087029480088A2
:1018C000A0F5FE40F83800B22B49088000202649D8
:1018D0000870274908702549087047F6F8701F49B5
:1018E00008390880084600881E4908801E4800788C
:1018F00064280DDA1C480078401C1B490870084613
:101900000078642804D115480838008815490880F3
:101910001848007800F058FF82464EF6602105FB1B
:1019200001F01549B1F9001000FB01F6F01706EBC4
:101930009070801090FBF4F9484600F02DFF80462F
:10194000514600F02BFE074600F0EAFE00B2BDE86B
:10195000F087000000100240000C01402C080040FD
:10196000200000202600002021000020230000206D
:1019700022000020240000202800002010B5B948D3
:10198000008840F40040B74908800120B549443937
:101990000880B54908604FF6FF70B44908600BE055
:1019A000B148A838006838B90120FEF769FFAE4891
:1019B000A838006800B900E0F2E700BF0020AB499A
:1019C0000860A848008820F40040A6490880A5487F
:1019D0004438008820F00100A249443908804FF4BF
:1019E000FA70FEF74DFF0020A1490870A149088058
:1019F0009C48008840F400409A4908800120994999
:101A0000443908800020984908604FF6FF709749D4
:101A100008600BE09448AC38006838B90120FEF744
:101A20002FFF9148AC38006800B900E0F2E700BF32
:101A300000208E4908608B48008820F400408949C6
:101A4000088088484438008820F0010085494439DE
:101A500008804FF4FA70FEF713FF8248008840F4C4
:101A600000408049088001207E49443908807E4931
:101A7000086080490988484200EBD0714A107C49CF
:101A800091F9001040F271235943A2EBC101774A4A
:101A9000116000BF754800680028FBD14FF4FA7050
:101AA000FEF7EEFE0020724908707249088010BDF2
:101AB00010B56F480078A8B940F6B830FFF723FD9D
:101AC0000020694908606B480088684908606548DB
:101AD000008840F40040634908800120614944398E
:101AE000088023E0624890F90000401CC0B940F62D
:101AF000B830FFF708FD01205B4908605D480088A9
:101B000042F20F71081A594908605648008840F49B
:101B1000004054490880012052494439088005E0BA
:101B200041F28830FFF7EFFCFFF728FF10BD2DE9E9
:101B3000F34F85B0894600BF002004904E490598B8
:101B400000F056FE054600F007FE03904B48006883
:101B500000F044FB05460022494B00F0A3F907467C
:101B60008846059800F08CFC3A464346CDE90001D2
:101B700000F09CFB824600F0BBF802903D490A88C9
:101B80003B4991F9001040F27123594302EB0110D7
:101B900000F002FE06463849484600F029FE074696
:101BA000314600F0FBFE054600F0BAFD0446002C6D
:101BB00025DD204600F0F0FD8346029900F0EEFCA2
:101BC000824600F05DFC074600222E4B00F0C2F872
:101BD000054600F0BFFA04900498FFF794FC01203A
:101BE00021490860214804601E48008840F40040F4
:101BF0001C49088001201B494439088025E06042C7
:101C000000F0CAFD8346029900F0C8FC824600F04D
:101C100037FC054600221B4B00F09CF8074600F0FD
:101C200099FA04900498FFF76EFC00200E490860B2
:101C300060420E4908600B48008840F400400949A2
:101C40000880012007494439088000BF0748006820
:101C500020B10A48016803988142F7D307B0BDE874
:101C6000F08F0000442C0140AC0121421C000020F8
:101C7000200000202408004000007A4404000020D6
:101C800000408F400000E03F70477047704770474A
:101C90007047754600F028F8AE4605006946534681
:101CA00020F00700854618B020B5FEF743FCBDE8DC
:101CB00020404FF000064FF000074FF000084FF0B3
:101CC000000B21F00701AC46ACE8C009ACE8C00944
:101CD000ACE8C009ACE8C0098D4670470446AFF3D4
:101CE00000802046FEF749FA004870476401002052
:101CF00021F00042A2F16052B2F5801F01F00043D2
:101D000028BFD2F17F6C0BD95FEA001C43EAC20204
:101D100042EB507018BF704728BF20F00100704799
:101D2000B2F5801FBCBF184670474FEA410C1CF546
:101D3000001F02D2084600F022BE70B500F061FA22
:101D400000000089FFF7F6BF4FF00040A0F58000CB
:101D50007047000010B591EA030F48BF83F00043BD
:101D600000F1AC82841A71EB030C05D2121943EB1B
:101D70000C03001B61EB0C01DFF824E14FEA115466
:101D8000A4EB135C1EEA430F18BF9EEA445F73D0B6
:101D900023EA0E03DCF1200E21EA045143F4801300
:101DA00032D322FA0CFE10EB0E0023FA0CFE41EBAC
:101DB0000E01CCF1200E03FA0EFE10EB0E0051F1D5
:101DC0000001B1F5801FCCF1200E32D201EB04519D
:101DD00012FA0EF2BDE8104058BF7047401C38BFE1
:101DE0005FEA420218BF7047002814BF20F00100CC
:101DF00041F100014FEA410313F5001F38BF70475E
:101E0000A1F1C04100F04BBA012A43EB0302ACF14F
:101E1000200CDCF11F0E32BF4FF0000E23FA0CF342
:101E200010EB030041EB0451B4EB115FD0D0A1EBF8
:101E3000045101F5801149085FEA300001EB0451BB
:101E40000ED350F1000038BF12FA0EFE08D1BDE8E3
:101E50001040C9E7401C38BF5FEA4202CAD1C3E75D
:101E6000BDE810404FEA410313F5001F38BF70472B
:101E7000A1F1C04100F013BA9EEA445F08D011EA14
:101E80005E0FBDE8104004BF01F000410020704724
:101E9000BDE8104070B500F0B4F900BF64FBBE3E71
:101EA0000000E0FF2DE9C04130B4DFF8A0C23CEAF9
:101EB000111418BF3CEA131400F0EC8081EA03050A
:101EC0001CEA111444EAD57418BF1CEA131500F07B
:101ED000C780A4EB05044FF0004545EAC12145EA5F
:101EE000C32341EA505143EA525304F17F749942AB
:101EF00004F500344FEAC0204FEAC22208BF9042E6
:101F000000F09C804FEA13650FF24016765D4FEAB1
:101F1000134506FB05F7C7F1807706FB07F74FEA85
:101F2000D737A7FB03687642C8F58038A7FB06CEF3
:101F300038BFA8F1010807FB08E64FF0000EA6FB2A
:101F4000028CE6FB03CEDCF1000CCEF1004E38BF74
:101F5000AEF1010EA6FB0C584FF000074FF0000544
:101F6000E6FB0E87A1FB08C6A0FB07CE16EB0E060C
:101F700045F10005E1FB076515F1E04E7EBFA4F5D4
:101F800080345FEA46066D4116F1800745F1000591
:101F90004FEA17274FEA066647EA0567A6F1DE46CD
:101FA000B6F1805F4FEA15251FD9384624F0010CA1
:101FB00005EBC471BCF1FE6F01EB0C1102D8F0BC53
:101FC000BDE8008124425CBF01F5801E9EEAC47F0B
:101FD00002D4F0BCBDE80081244238D4F0BCA1F1A9
:101FE000C041BDE8004100F05AB94FEAD22242EAAE
:101FF00043524FEAD323A7FB02864FEAD02040EAA0
:10200000415007FB03661EEA0E0F4FEAD12105FB84
:10201000026658BFA6EB0056B6EB00564FEA520ECA
:102020004EEAC37E18EB0E0E56EB530EBDD518EBE1
:1020300002085E417F1C55F10005B6E74FF480159C
:102040004FF000074FF000064FF00008ADE7F0BC7E
:102050004FF0000001F1C04101F00041BDE80081F6
:1020600011EA0C1F0CEA131500D00CE013EA0C1F48
:1020700000F025804FF00000F0BC81EA030101F080
:102080000041BDE80081F0BC81EA0301BDE80041E8
:1020900000F005B9F0BCBDE8004170B500F0B1F842
:1020A000097EFC3E00F007B881EA03014FF0000012
:1020B00001F00041704781EA030100F0F0B8F0BC84
:1020C0004FF000002249BDE800417047FFFDFBF9D9
:1020D000F7F5F4F2F0EEEDEBE9E8E6E4E3E1E0DE5B
:1020E000DDDBDAD8D7D5D4D3D1D0CFCDCCCBCAC8CD
:1020F000C7C6C5C4C2C1C0BFBEBDBCBBBAB9B8B7F4
:10210000B6B5B4B3B2B1B0AFAEADACABAAA9A8A8E6
:10211000A7A6A5A4A3A3A2A1A09F9F9E9D9C9C9BB4
:102120009A9999989797969595949393929191905F
:102130008F8F8E8E8D8C8C8B8B8A898988888787F0
:102140008685858484838382828181800000FF0765
:102150000000F87F4FEA1153A3F58063D3F11E030B
:10216000A8BFD3F1200C08DB4FF0004242EAC122A5
:1021700052EA505232FA03F0704709420BD4102B46
:10218000C4BF0020704703F5787CBCF1FF3F05D049
:102190004FF0FF3070474FF00000704770B500F00F
:1021A00030F800BF4992248000207047F0E710F01B
:1021B000004248BF4042B0FA80F310FA03F10AD05F
:1021C000C3F11D0303F580634FEA415002EB035254
:1021D00002EBD12170474FF000007047B0FA80F356
:1021E00010FA03F10AD0C3F11D0303F580634FEA2F
:1021F00041504FEA035202EBD12170474FF00000EB
:1022000070470EF1020E2EF0030E5EF8046B36429C
:1022100005D4012A43EB030515F5001F12D8012848
:1022200041EB010C1CF5001F0CD80ED14FEAD17CFC
:1022300015F5001F0CEB4C0C0CF1020C08BF4CEB1D
:10224000D37C04E04FF0080C01E04FEAD37C0CEBA8
:102250004C0526FA05F606F00706B6F1040C06D280
:102260000EEB860CBDE870404CF0010C6047DFE8D7
:102270000CF0090B02024FF000414FF00000A1F5F5
:10228000002170BD19461046012851EB010418BF0A
:10229000D4F5001484BF002001F0004170BD08088F
:1022A000A0F500114FEA31017047000010B591EA26
:1022B000030F48BF83F000433FF554AD841A71EB20
:1022C000030C07D212198CF0004C43EB0C03001BDB
:1022D00061EB0C01DFF8A4E14FEA1154A4EB135CAD
:1022E0001EEA430F18BF9EEA445F00F0B08023EA65
:1022F0006E03524221EA0451C3EB6E0338BF5B1EEA
:10230000DCF1200E25D322FA0CFE10EB0E0043FA6E
:102310000CFE41EB0E01CCF1200E03FA0EFE10EB89
:102320000E0051F10001CCF1200E29D412FA0EF268
:1023300001EB0451BDE8104058BF7047401C1CBF62
:10234000B2F1004F704700280CBF491C20F001007B
:10235000704712EB020E43EB030218BF4FF0010E61
:102360004EEA4202ACF1200CDCF11E0E54D943FAC5
:102370000CFE10EB0E0051F1FF31CCF11E0ED5D545
:102380000EF1010E12FA0EFE404141EB010101EB8C
:10239000445C5FEA5C5C10D910EBDE7001EB045129
:1023A00038BFBEF1004FBDE8104018BF704700288D
:1023B0000CBF491C20F00100704730D24FEAD42CEA
:1023C00011F5001124F400641BD0B1FA81F20B3A2C
:1023D000A41AA41ED2F12003914030FA03F319434A
:1023E000904001EBCC71002C01EB0451BDE8104092
:1023F000A8BF704701F1C0414FF0000001F000415B
:102400007047B0FA80F310FA03F100D110BDE41A5E
:10241000173C4805C90AE4E701EB045110BD491017
:1024200001EB0451BDE810404FEA300002E04FF0EC
:10243000000170474A0008BF0042F8D0B2F5001F03
:1024400028BF704701F000414FF0000070479EEA3E
:10245000445F07D011EA5E0FBDE8104004BF0021C1
:1024600000207047BDE8104070B5FFF7CAFE00BFFE
:1024700040DFF63E83F00041104670470000E0FF69
:1024800043004FEAD30C4FEA3C0C43401FBF4007C8
:102490000CF1605113F0FE4F70471CF0006F03D138
:1024A00000200CF0004170470CF0004343EA5070EC
:1024B00010B540EACC0000F01CFA00BF000000920A
:1024C0004FEA0001FFF7EBBE4FF000414FF0000074
:1024D000A1F500217047000090EA010F48BF81F08C
:1024E000004100F16282421A3CBF801A89184FEA0B
:1024F000D0524FF07F4C1CEA410FA2EBD15318BFD2
:102500009CEA026F00F03B804FF0004C4CEA002048
:102510004CEA012121FA03FC10EB0C0C1ED202F153
:10252000FF325FEA1C2040EBC25038BF70471CF0FE
:102530007F0F4FEA400C18BFBCF17F4F38BF704788
:10254000C3F12003994008BF20F00100BCF17F4F88
:1025500038BF7047A0F1C04000F011BA4FEA3C000C
:10256000000A40EBC25028BF1CF0FF0F4FEA400C9E
:10257000E6D018BFBCF17F4F38BF7047EAE79CEA4E
:10258000026F05D010EA5C0F08BF00F000407047F2
:1025900010B500F0AEF900BF64FBBE3E4FF47F0CF7
:1025A0001CEAD0121EBF1CEAD11392EA0C0F93EA68
:1025B0000C0F00F0858090EA010F48BF42F4807252
:1025C00040F4000C41F400002CF07F4120F07F40EB
:1025D00000B58142A2EB03020FF2081CACEB504E97
:1025E000C0F100009EF800E04FEA4E0E00FB0EFC2A
:1025F00038BF49004FEA2C1C02F5FA020CFB0EF31F
:102600004FEACE1E4FEA112C4FEAC1210EEB635E5A
:1026100042EB22420EFB0CFC4FEA1C5300FB031161
:102620004FEA112C4FEA01310EFB0CFC4FEADC4C57
:1026300000FB0C11C14228BF09184CEB03335DF8B5
:1026400004EB10EB410143EBC250B2F57C0F38BFF5
:10265000704729D512F0F00F1CBF00F1C04000F008
:1026600000407047008182838485868788898B8CAF
:102670008D8E8F919293959697999A9C9D9FA0A2EB
:10268000A3A5A7A8AAACAEB0B2B3B5B7B9BCBEC03B
:10269000C2C5C7C9CCCED1D4D7D9DCDFE2E6E9ECDC
:1026A000F0F3F7FAFE0000004FEA400C0CF1807CDA
:1026B000BCF17E4F28BF7047B0F1C04000F05FB959
:1026C00090EA010F0CEAD11348BF42F480726245D0
:1026D00038BF634507D213F47F0F16D080EA01009C
:1026E00000F00040704710B500F003F9097EFC3E91
:1026F00000F005B880EA010000F00040704780EA71
:10270000010000F0004000F03AB912F47F0F04BF5E
:102710000248704780EA010000F031B90000C07F34
:1027200041000B0ED3F19E0208D950F400034FEA8A
:10273000032323FA02F048BF4042704710B500F06F
:10274000D8F800BF49922480002070476FF0004203
:1027500082EA200070470000C10DD1F19E0206DB25
:102760004FEA002343F0004323FA02F0704700428F
:1027700007D54FEA4001B1F1FE4F02D24FF0000001
:10278000704710B500F0B5F84992248000207047DA
:102790006FEA20007047000010F0004148BF40423F
:1027A000B0FA80F310FA03F2C3F19D030BD051EAA3
:1027B000C35101EB1220530638BF704700F10100EE
:1027C00008BF20F001007047B0FA80F310FA03F25E
:1027D000C3F19D030AD0D90501EB1220530638BF7F
:1027E000704700F1010008BF20F0010070470000B1
:1027F0004FF47F0C1CEAD0121EBF1CEAD11392EAE0
:102800000C0F93EA0C0F00F0478090EA010F48BFCD
:1028100042F480724FF0004C4CEA00204CEA012157
:1028200002EB0302A0FB0113A2F50002002918BF6E
:1028300043F001035B0028BF4FEA330342EB22421F
:102840005FEA132C4CEBC2502EBFBCEB436FB2F5CA
:102850007C0F70474FEA036CBCF1004F08BF20F0BB
:102860000100B2F57C0F38BF70470BD582F0FF0234
:1028700012F5803FC8BF704700F1C040D8BF00F0DC
:102880000040704700F5000C5FEA4C0C48BF7047F1
:10289000B0F1C04000F073B890EA010F0CEAD11318
:1028A00048BF42F48072624538BF634504D280EA73
:1028B000010000F00040704710B500F01AF800BFAA
:1028C0008900013E00F007B800F009B85FEA410C4A
:1028D0005FEA1C6C08D080EA010000F050B85FEAA3
:1028E000400C5FEA1C6CF6D14FF00040A0F5800070
:1028F00070470EF1020E2EF0030E5EF8044B2442D8
:1029000004D44FEA4102B2F17F4F11D84FEA40039D
:10291000B3F17F4F0CD80ED14FEAD07CB2F17F4F8C
:102920000CEB4C0C0CF1020C08BF4CEBD17C04E01E
:102930004FF0080C01E04FEAD17C0CEB4C0324FA79
:1029400003F404F00704B4F1040C06D20EEB840C7B
:10295000BDE810404CF0010C6047DFE80CF00708C0
:1029600002024FF00040A0F5800010BD0846420072
:1029700018BFD2F1807288BF00F0004010BDFF2167
:1029800041EAD050C005704780F0004090EA010F46
:102990007FF5A9AD81F0004100F007B890EA010F82
:1029A00048BF81F000413FF59EAD421A04D882F045
:1029B0000042A0EB020011444FEAD0524FF07F4C8E
:1029C0001CEA410FA2EBD15318BF9CEA026F4AD018
:1029D0004FF0004C4CEA00204CEA012121FA03FCA4
:1029E000B0EB0C0C0FD412F0FE0F36D05FEA4C00A7
:1029F0001DD5001240EBC25038BF70471CF03F0F8E
:102A000018BF70470BE0A2F101025FEA1C2040EB07
:102A1000C25038BF70471CF07F0F18BF7047C3F11A
:102A20002003994014BF401E20F001007047800829
:102A30004FEA122308BF7047B0FA80FCA2EB0C02E9
:102A4000CCF1280C60FA0CF093EA122F04BF00EBD3
:102A5000C25070474FEAC3707047130A5FEADC1038
:102A600008BF7047F6E79CEA026F04D010EA5C0FDB
:102A700008BF0020704710B5FFF73BFF40DFF63E70
:102A800081F0004070470000A82A000800000020E4
:102A90002C00000028010008D42A00082C00002087
:102AA0009C07000044010008000000000000000036
:102AB00000000000000000001010000000000000F6
:102AC00000000100000000000064000000000000A1
:042AD0000000000002
:04000005080000ED02
:00000001FF
